:400000000010002011000000B5030000B503000008B500F079FA00F0CFF90000F7B572B680220021D200554800F0D7FF802200215348D20000F0D1FF0023191C514C185915
:400040001034C2B20192071CFF2297434A00A4180022019ED5B2AE4209D05500665D6519B446BC446D78664635700132F1E7C0B204330918102BE1D1434BC02292041A60F8
:40008000424B99221A60424A00231360414A80211160414AC9031160404A40211160404AC021490311603F4A312113603E4B02221A603E4B802019603D4B3E491A60992317
:4000C0001B040B603C49000608603C493C200B603B4B8021890519603A493B4B19603B4B19780A431A703A4A117881431420014311701A7816210A431A70364A8023116893
:40010000DB020B431360344B141C1878334BC0B21978334BC9B21A78172A05D9314A58789978033B9342F6D12F4B192218602F4B052019602E4B1A6000F052FD2D4B05206D
:400140001A782D4BD2B21A6000F088FE22682B4B134023602A4A2B4B1A602B4B10221A602A4B20221A602A4B802212061A60294A294B1A60294A2A4B1A60F7BD00300F40D5
:4001800000400F40F80F000004000140100001400C000140000004400800044000010440080104400803044000040440080404401804044000500F4004500F4010500F406C
:4001C00018500F40100001002001054000700F4001700F4000010B40CCF1FF0FCDF1FF0FC9F1FF0FBDF1FF0F1CFF0B4020FF0B402CFF0B40E5F1FF0F28FF0B40FFFFFBFF57
:400200000600008004010B40080202402002024008010B401000008000000240AF0400804000024010B5064C2378002B07D1054B002B02D0044800E000BF0123237010BDEC
:40024000F000002000000000F40F000008B5084B002B03D00748084900E000BF07480368002B03D0064B002B00D0984708BDC04600000000F40F0000F4000020D000002069
:400280000000000010B562B600F0A2FC00280ED16524012000F0CCFD00F09AFC002806D1013CE4B2002CF4D1034B40221A6000F081FC00F0D3FAFEE7C000002008B500F05A
:4002C0000BFB00F043FB00F0ABFB08BD70B5054B0D1C161C0024C9B21C8000F095FB3580201C70BD0C010020F0B50A275F4387B003900591151C00262D4CBE4219DA00F00E
:4003000013FB80B220802388002B0CD00220268800F08EFD00F008FB80B220802388B6B2B342F3D807E00120013600F081FDB6B2E2E7052600E0002600272F802388002B8D
:4003400033D023889BB2019301992B885A18059992B22A808A4221D2019ABB189BB2029302998F4209D07B1C9BB20493039BDF1900F0C0FA3870049FF2E772B62388019A02
:400380009B1A9BB2238062B6039A5318013B1B78172B08D0052000F04BFD04E02B8000F0D5FA052601E0029FC8E7301C07B0F0BD0C010020FEE7000070B51048104B0138B5
:4003C000421C15D01E685C689D680022A118AA4203D0B158A1500432F8E7DA680D1C4C1B944202D0002410C1F9E710330138E7E700F0C4FDFFF746FFFEE7C0460100000051
:400400004810000008B500239A00032B02D80D49895800E00C490D4801338150302BF3D1FFF7FCFD0A4B00221A600A4B1A68002A00D11A608023DB051A6801210A431A60E3
:4004400008BDC04600000000B503000000000020C8000020C0000020004710B50023002A05D0013A4418A45C1B19DBB2F7E7181C10BD0000013800B509282AD8C901494236
:4004800000F068FD0507090B0D0F1614181B144B08E0144B12E0144B0DE0144B0EE0144B00E0144BC9180878C0B217E0124B02E0124B00E0124BC9180CE0124BC9180B784E
:4004C00048788A780002120410431843CB781B0603E000210B7848780002184300BDC046C07F0000C17F0000C57F0000C97F0000D07F0000D17F0000D67F0000D27F000059
:40050000D47F0000D87F00000C4B10B51A6810231A400B4B00D11A601A68802A0DD100240220211C1C60FFF7A5FFA04205D0211C0220FFF79FFFFFF78FFF10BD00030B4059
:40054000C0000020F8B5051C291C0320FFF792FF291C041C0420FFF78DFF671CFF013F18291C0320FFF786FF00240130C001261CB84209D203785A1ED2B2FD2A00D801264C
:400580001C19E4B20130F3E70120291CFFF772FF6442E4B20623844203D17242564176423340181CF8BD0000F0B5A44CA544FFF785FE62B600260096002506AC03AE962130
:4005C000201C4900321CFF23FFF78EFE0028F4D13188062900D88AE022780423012A54D1E778A2783F021743E2195679B44616790196FE1D8E427FD89279172A45D1FB18A7
:400600009BB2002B08D09CA98D4ECA1892191278013B801880B2F3E7019B614640420A0280B21A43082382422FD167E0342B00D09DE0009901295AD1032F58D151A80021AE
:40064000802200F0CAFC802551A948192639ED19FA1EFF39ADB200F0B7FC832D49D1A079637900021843774B36021B6880191A6880B2D3099BB2560601D001339BB29842D4
:400680007BD20127009700250A2300210120207068466A46437681766B4600200E32D8760B1D11809BB29CAFFE18654F013BF61936789BB2801980B2002BF4D19CAE624F86
:4006C0007318DE194042614F80B23070DE19000A30705F4807311B181720187089B2201C9623FFF7F3FD68E7009E012E1BD00423CBE70126009600250323C6E763782679DD
:40070000181C31380A2801D90523BEE700F02CFCECFF1400FCFF8EFF3F00FCFF430054008EFF63008B00002FE1D1381CFFF70AFF43424341237173E000980128D7D1012F9B
:40074000D5D1002ED3D13F4B1B681B68DA0BD2B2DB09DBB2002A01D080235B0023711B0A6371FF23A3710023E37104218EE7009B012BBCD1022FBAD966E751A900F044FA3D
:40078000002800D07DE701260096051C12E0009F012FACD110E7009E012EA8D19623EE195B009E42A8D851A948193A1C07A900F00BFCB5B2002368E7002F98D104AB254A22
:4007C000191C41CA41C107AA41CB41C2012600963B1C08215AE70098012888D1032F86D1A37962791B021A43310251180192C90100208022FFF731FE071C002E0ED10199BB
:40080000FF290BD1311C0520FFF734FE311C3F1A0620FFF72FFEFFB23F1AFFB27F4227710023012132E70020FFF78CFE002802D1094B80221A6000F0EFFA58E78CFDFFFF0F
:40084000A7FDFFFFD4000020ACFDFFFFADFDFFFFAEFDFFFF1C100000C000002070B50020FFF770FE0024A04200D00624114E00203368C0211D682A1CC03AFFF7EEFD7368B9
:400880001B78181AC0B2984201D1002D02D1002000F0C0FA084B19681A1C402901D0002C03D000231360FFF77FFE80221A6000F0B3FA70BDD4000020C000002008B5054B78
:4008C0008022196812060A431A600A2000F08EFA08BDC0460000064010B5054C2378002B03D100F0BFF801232370FFF7E7FF10BD10010020094B0A4A1968136899420BD001
:4009000011684B1C4039481E814149420B400549C85C1360C0B200E000207047B0010020280100206C010020064B074A1B6811688B4202D31068181A02E012684133981A3F
:400940007047C046B0010020280100200C4A0D4B002130B5106811601D68802464022C431C601D68084C2C401C60084B1C68084B1C60084B19700849084B1960106030BDCC
:40098000C80F064004030640FFFFFEFF28010020B0010020AD010020ED0F0000C00F0640124910B50A68531C3F3A541EA241524213400F4A1468A342FBD00C6812689442DA
:4009C00008D10C4A14680F222240082A02D00A4B18600AE0094C02222260094CC0B2E0540B60084B19680A431A6010BD24010020200100200802064040020640800F064002
:400A00002C010020880F064038B5041C4518AC4204D02078FFF7C4FF0134F8E738BD00000B4A0023116810B513600A4B80201C684002204318601C68074820401860074B4A
:400A40001868074B186002239943116010BDC046880F064004020640FFFFFEFF20010020240100201D4A1E4B10B51A601D4B00241C601D4B01221A601C491D4B07200B60C2
:400A80001C4908601C490A200C601C490A601C4A13601C4B1C6000F0B3F90A20032100F08BF919490A2000F07FF9184B04221C60174B1C60174B1C60174B1C60174B1A6016
:400AC000174B1C60174B1C60174B1C60174B1C70174B1C60174B1C6010BDC0460B000002000006404000064048000640000306400700008004030640100306404400064078
:400B00000002064004020640710E0000880E0640C80E0640480F0640080F0640C80F0640880F0640B001002028010020AD01002024010020200100200E4B8422D2041A60F9
:400B40001968802252020A431A600B490B4A0A60196819600A4BC32189001960094B00211960094B1C211960084B1A60084A094B1A60704700010540080105401027000088
:400B800024010540380105402801054014010540881300000C01054008B500F02BF8044B01211A680A431A6000F028F808BDC0460000054010B5054C2378002B03D1FFF748
:400BC000BBFF01232370FFF7E7FF10BD18010020024B18680006C00F7047C046040004400230800804D0C0460138FDD1C046C046C0467047EFF3108072B6704780F310883B
:400C00007047C046C046C046F0B50024CBB0069404900794FF2800D9A4E0A14200D1A1E008AD8022281C00F0CFF9231C211C221C029498002858002802D01218014302936D
:400C40000133202BF5D1002A05D1002900D08EE00191039102E0002001900390484F7F2328AE291C80222AA82897464C736000F0ABF9454A454B266013602168090F0A2910
:400C800003D022680F23134000E000230693069F002F69D1FFF7AEFF3D4A3E4B116807971960069B0590002B14D13B4A04982892289A01040A43289228AA22603249374A26
:400CC0000A602268120F0A2A03D02E4B1A680F2313400693069F002F38D1019A002A35D0391C8022281C00F078F90298039A08A983005A50224B2AA8289380227F23736056
:400D000000F062F9214820492660086023681B0F0A2B03D01B4B1F680F231F400697069B002B13D11E4A04982892289A01040A43289215491B4A26600A602268120F0A2A02
:400D400003D0104B1A680F2313400693079B002B04D1104A0E481268026007930598FFF74DFF01E00423069306984BB0F0BD02998B00E85801210390EA5001916EE7C046D5
:400D8000B6D7000008000040040000400400008008010B401C010020B6D8000005000080B6D9000006000080024A83009B181868196070474000002038B5041C0D1CFFF71F
:400DC00019FFA308084A9B009B1803221440944019680634A2409143A5400C1C2C431C60FFF70CFF38BDC04600E400E01F23184001238340181C014B1860704700E100E029
:400E00001F23184001238340181C014B1860704780E100E001BE7047034B04491A6892B20A431A607047C0460CED00E00400FA0510B5041C8022074B1202944205D91868E9
:400E4000FFF7CEFE044BE418F4E758686043FFF7C7FE10BDDC0000200080FFFF08B5034B1B7A5843FFF7BCFE08BDC046DC000020274B10B51B68002B00D09847254B1B68EC
:400E80005A071DD5244B1B681A0716D0234B244A186811684B1C40394C1EA14149420B40204909688B4203D11F4B20221A70E9E71E49C0B2C8541360E4E71D4B04221A6053
:400EC0001C4B1B689A0721D51B4B1A680F231340082B18D0194B1A4A1968136899420DD011684B1C3F39481E814149420B401549C85C1549C0B208601360E5E7134B02219D
:400F00001A688A431A60124B02221A6010BDC04614010020CC0F06400803064040030640B001002028010020AD0100206C010020C00F06408C0F06400802064024010020EA
:400F4000200100202C01002040020640880F0640800F064002B4714649084900095C49008E4402BC7047C04603B47146490840004900095E49008E4403BC704770B50E4BE9
:400F80000E4D0024ED1AAD101E1CAC4204D0A300F35898470134F8E700F044F8084B094D0024ED1AAD101E1CAC4204D0A300F35898470134F8E770BD3010000030100000CA
:400FC000301000003810000010B50023934203D0CC5CC4540133F9E710BD031C8218934202D019700133FAE77047000078100000750000000000000001330F4003410F40F0
:4010000004430F4002600F40E61062048E04D84018808C40C608E608020111019311C804111E0101F8B5C046F8BC08BC9E4670474D02000005040000F8B5C046F8BC08BC44
:401040009E4670472502000058100000D000002020000000C800000000000000EC0F0000F00F00000000E02EC05D00001800000000366E010000000000000000000000008C
:401080000010002091100000A51C0000A51C000010B5024B83F3088800F022FE00100020F7B572B601224E4B00211A7080224D48D20001F073FA80220021D2004A4801F0CB
:4010C0006DFA0022FF251100484E2836474BD0584B000700284009184800013001333018AF43F31801900198834207D0581E0078C0190400187802332070F4E70432282A6E
:40110000E4D13B4B08321A60C0223A4B92041A60EE22394B12021A609923A221374A1B041360374AC90311608021364A49051360354A3C201360354A10251160344A354986
:4011400013600422344B354C1A60354B1A600B788343283803430B70324902300B7803430B708221304B023019603049304B1960C021304B090219602F4B1A602F4A304B09
:401180001A6020222F4B1A602F4B92181A60DB222E4B12041A60B6222D4B92011D602D4B1A6080222C4B92001A6080222368D2021343236000F084FF2268284B2849134056
:4011C0002360284A284B1A60284B063A1D60284B1A600023274A23601160274A1360F7BD1C700F4000300F4000400F405028000000000140080001400C00014000500F40F9
:4012000008500F4010500F4020500F4028500F4030500F4001700F402000004000010B4000800F4000700F4000000440B6015800080004400C00044000010440800018003D
:40124000080104400C010440000204400802044000030440080304400C030440FFFFFBFF6F1700800600008004010B403002024008010B40000002400C020B4010B5064C05
:401280002378002B07D1054B002B02D0044800E000BF0123237010BD480100200000000040280000084B10B5002B03D00749084800E000BF07480368002B00D110BD064BDA
:4012C000002BFBD09847F9E7000000004C01002040280000C80000200000000010B562B6042000F0CDFA052000F0CAFA00F0BEFC012000F003FB03230B4C237000F0D2FF61
:401300002378DBB2022B08D0032B0AD0012BF7D10649032000F011FCF2E7044800F0F8F9EEE700F05FFFEBE7640100204428000010B5022000F016FC00280DD0012000F02A
:401340003DFAFA20400000F09BFE012000F098FAFA20400000F094FE10BD10B5022000F001FC00280DD0022000F028FAFA20400000F086FE022000F083FAFA20400000F053
:401380007FFE10BD10B50400022000F0EBFB002800D1BCE1200030384A2800D9B7E100F0DBFF2D013801430150015D016A01770186019501A601B601B601B601B601B601C3
:4013C000B601B6014B0054005D0066006F00780081008A0093009C00A500B000BB00C600D100DC00E300EA00F100F800FF0006010D0114011B012201B601B601B601B6017F
:40140000B601B6014B0054005D0066006F00780081008A0093009C00A500B000BB00C600D100DC00E300EA00F100F800FF0006010D0114011B012201FFF77AFFFFF78DFF29
:40144000FFF776FFFFF774FFEBE0FFF771FFFFF784FFFFF76DFFFFF76BFFEDE0FFF768FFFFF77BFFFFF764FFFFF762FFF1E0FFF75FFFFFF772FFFFF75BFFFFF759FFF5E0E3
:40148000FFF756FFFFF769FFFFF752FFFFF750FFF9E0FFF74DFFFFF760FFFFF749FFFFF747FFFDE0FFF744FFFFF757FFFFF740FFFFF73EFF03E1FFF73BFFFFF74EFFFFF7F6
:4014C00037FFFFF735FF09E1FFF732FFFFF745FFFFF72EFFFFF72CFF11E1FFF729FFFFF73CFFFFF725FFFFF723FF84E0FFF720FFFFF733FFFFF71CFFFFF71AFFFFF72DFFA7
:40150000A9E0FFF715FFFFF728FFFFF711FFFFF70FFFFFF722FFABE0FFF70AFFFFF71DFFFFF706FFFFF704FFFFF717FFADE0FFF7FFFEFFF712FFFFF7FBFEFFF7F9FEFFF7E5
:401540000CFFAFE0FFF7F4FEFFF707FFFFF7F0FEFFF7EEFEFFF701FFB3E0FFF7E9FEFFF7FCFEFFF7E5FE4FE0FFF7E2FEFFF7F5FEFFF7DEFE53E0FFF7DBFEFFF7EEFEFFF75E
:40158000D7FE57E0FFF7D4FEFFF7E7FEFFF7D0FE5DE0FFF7CDFEFFF7E0FEFFF7C9FE63E0FFF7C6FEFFF7D9FEFFF7C2FE69E0FFF7BFFEFFF7D2FEFFF7BBFE6FE0FFF7B8FE3D
:4015C000FFF7CBFEFFF7B4FE77E0FFF7B1FEFFF7C4FEFFF7ADFE7FE0FFF7AAFEFFF7BDFEFFF7A6FE89E0FFF7A3FEFFF7B6FEFFF79FFEFFF7B2FEFFF7B0FE1FE0FFF798FED5
:40160000FFF796FEFFF7A9FEFFF7A7FEFFF790FE66E0FFF78DFEFFF78BFEFFF79EFEFFF79CFEFFF785FE6CE0FFF782FEFFF780FEFFF793FEFFF791FEFFF77AFEFFF778FE67
:4016400032E0FFF775FEFFF773FEFFF786FEFFF784FEFFF76DFEFFF76BFE34E0FFF768FEFFF766FEFFF779FEFFF777FEFFF760FEFFF773FE36E0FFF75BFEFFF759FEFFF7D1
:401680006CFEFFF76AFEFFF753FEFFF766FE3AE0FFF74EFEFFF74CFEFFF75FFEFFF75DFEFFF746FEFFF759FEFFF757FE1CE0FFF73FFEFFF73DFEFFF750FEFFF74EFEFFF7D3
:4016C00037FEFFF74AFEFFF748FE1EE0FFF730FEFFF72EFEFFF741FEFFF73FFEFFF73DFEFFF726FEFFF724FEFFF722FE0FE0FFF71FFEFFF71DFEFFF730FEFFF72EFEFFF7C7
:401700002CFEFFF715FEFFF713FEFFF726FE10BD70B505000024280000F0B2FF844209D2022000F01FFA002804D0285DFFF72AFE0134F0E770BD000010B50C00022808D0FA
:40174000032803D0044B012805D103E00120FFF7F3FF024B5C7010BD7401002072010020013810B50C0004280FD800F0EBFD0308050A0C00054B07E00120FFF7F1FF044B7B
:4017800002E0044B00E0044B1C7010BD74010020720100207101002070010020012803D0022805D1034B00E0034B5878C0B200E0FF2070477201002074010020013810B58F
:4017C000042858D800F0BEFD0328254A50002A4B58780138062819D800F0B4FD040907150D12100000F026FC10E000F023FC012000F02EFC0AE000F01DFC04E000F01AFC39
:40180000012000F025FC012000F052FB012108002FE00120FFF7D2FF184B58780138062819D800F08FFD040907150D12100000F0A5FB10E000F0A2FB012000F015FC0AE07F
:4018400000F09CFB04E000F099FB012000F00CFC012000F039FB012102200AE0012000F095FA0121042004E0012000F083FA01210520FFF775FF10BD7401002072010020EF
:40188000013810B504282AD800F05CFD03110E1C220000F089FB002000F0DAFB002000F007FB0021012018E00120FFF7E9FF00F01FFB002000F0D8FB002000F005FB002191
:4018C00002200AE0002000F061FA0021042004E0002000F04FFA00210520FFF741FF10BD10B50120FFF7CCFF0220FFF7C9FF0420FFF7C6FF0520FFF7C3FF10BD10B50400CD
:40190000FFF7EEFF21000120FFF716FF21000220FFF712FF10BD10B50400012000F022F900280CD02000FFF749FFFA20400000F0A7FB2000FFF7A4FFFA2000F0A1FB10BDF1
:4019400010B50400012000F00DF900280BD02000FFF734FF044800F093FB2000FFF790FFFA2000F08DFB10BDDC05000010B5012000F0F8F8002803D0FA20800000F080FBC6
:4019800010BD70B5040001200D0000F0EBF8002800D1D1E0280020385A2800D9CCE000F0D1FCC7CBCBCBCBCBCBCBCBCBCBCBB2CBA2CB4D5158626670747B8592CBCBCBCB78
:4019C000CBCBCBAE7E2E8B9E3298778E5BAB39BE9B5E3D413581C16C69BB454988CBCBCBCBCBCBAE7E2E8B9E3298778E5BAB39BE9B5E3D413581C16C69BB454988002000DE
:401A0000FFF79EFF02E02000FFF785FF2000FFF782FF61E02000FFF77EFF4DE02000FFF77AFF56E02000FFF78BFF65E02000FFF787FF22E02000FFF783FF6DE02000FFF7BC
:401A40007FFF02E02000FFF766FF2000FFF778FF05E02000FFF75FFF2000FFF75CFF2000FFF76EFF5BE02000FFF755FF51E02000FFF751FF2000FFF74EFF2000FFF74BFFB2
:401A80003DE02000FFF747FF02E02000FFF758FF2000FFF740FF05E02000FFF751FF2000FFF74EFF2000FFF736FF08E02000FFF747FF2000FFF744FF2000FFF741FF2000FD
:401AC000FFF729FF0BE02000FFF73AFF2000FFF737FF2000FFF734FF2000FFF731FF2000FFF719FF21E02000FFF715FF2000FFF727FF2000FFF70FFF2000FFF721FF2000A4
:401B0000FFF709FF0EE02000FFF71AFF2000FFF717FF2000FFF7FFFE2000FFF7FCFE2000FFF70EFF2000FFF70BFFFFF71FFF03E0FA20800000F0A4FA70BD70B506000D0074
:401B40000024280000F09CFD84420AD2012000F009F8002805D0295D3000FFF712FF0134EFE770BD034B1B78181A43425841C0B27047C0466401002010B500F049FB0120EB
:401B8000FFF70CFE040000F03FFD072100F0D4FC0131A142F7D0C8B2FFF7B0FE0122024B1A7000F0FFF810BD6401002010B500F02FFB0120FFF7F2FD040000F025FD0721BD
:401BC00000F0BAFC0131A142F7D0C8B2FFF796FE0222024B1A7000F011F910BD64010020032210B5034B1A7000F05CFB00F034F910BDC04664010020F8B50120FFF7CEFD0B
:401C000007000220FFF7CAFD060000F0FDFC072100F092FC4D1C00F0F7FC072100F08CFC4C1CBD4206D100F0EFFC072100F084FC4D1CF6E7B44206D100F0E6FC072100F08F
:401C40007BFC4C1CF6E7E9B20120FFF775FDE1B20220FFF771FD0320FFF712FE0320FFF7ADFD00F057FB00F02BFBF8BD10B5094800F00CF9084800F0AFF8084800F0DAF86E
:401C8000074800F035FB002000F002FD00F08EFC10BDC046E11B0000791B0000AD1B0000F91B000010B500F04DFC03680C2B00D1FEE7FEE703000849084A086810B5C318FC
:401CC0009A1A802A01DC0B6005E000F03BFC0C2303600120404210BDCC00002080010020F8B500250F49104B01394A1C14D000221F685C689E68A018B24203D0B858A050A8
:401D00000432F8E70200DE68141AA64201D020C2FAE710330139E8E700F01AFCFFF7DEFAFEE7C04601000000982A0000002370B50C480D4C0D4D9A002100032B00D8A958BD
:401D400001338150302BF6D1FFF7AAF9084B1A68002A00D11A6080220121D20513680B43136070BD00000020A51C000080100000C00000204023044980010A689A43D2B200
:401D8000034013430B607047000104404023044980010A689A43D2B2034013430B607047000004401023034A1068184010600009C0B270471003044010B5040000F0BAFA6A
:401DC000044AA40713689B009B081C43146000F0B5FA10BD00E400E010B50824044B1C60044BD8640320FFF7E7FF034B1C6010BD80E100E00000002000E100E00423034ABB
:401E00001068184010608008C0B270471001044010B5040000F08EFA044A054B1168A4030B401C43146000F089FA10BD00E400E0FF3FFFFF10B50224044B1C60044B58643E
:401E40000320FFF7E5FF034B1C6010BD80E100E00000002000E100E07F22034B18689043C0B21860C00970471000044010B5040000F060FAC021044AA40113688B431C431D
:401E8000146000F05BFA10BD00E400E010B50124044B1C60044B18640320FFF7E7FF034B1C6010BD80E100E00000002000E100E07F23044AC00111680B401843C0B21060EE
:401EC0007047C046000204400423044980000A689A43D2B2034013430B607047000004408023024A11780B431370704772000F407F23024A11780B401370704772000F409B
:401F00001023044904480A781A4201D00278FAE77047C04662000F4052000F403F2110B5104A114C13788B4336390B43137001222378134323703C230C4A13700C4A13708F
:401F40001E220C4B1A7000220B4B1A7000F0F2F9102223781343237000F0F0F9FFF7D0FF10BDC04672000F4092000F4002000F4042000F4022000F4082000F4010B5054C60
:401F80002378002B03D1FFF7C9FF01232370FFF7A7FF10BD650100208023024A11780B431370704773000F407F23024A11780B401370704773000F401023044904480A7855
:401FC0001A4201D00278FAE77047C04663000F4053000F403F2110B5104A114C13788B4336390B43137001222378134323703C230C4A13700C4A13701E220C4B1A700022D8
:402000000B4B1A7000F096F9102223781343237000F094F9FFF7D0FF10BDC04673000F4093000F4003000F4043000F4023000F4083000F4010B5054C2378002B03D1FFF704
:40204000C9FF01232370FFF7A7FF10BD660100202023044940010A689A43D2B2034013430B60704700020440012304490A689A43D2B2034013430B607047C0460000044003
:4020800070B5802504002D02064BAC4205D9586800F046F9044BE418F6E79868604300F03FF970BDD00000200080FFFF10B5034B1B7B584300F034F910BDC046D000002065
:4020C000F0B5050087B000F035F9EB1E049003932D2B5BD8304B1B789D4204D82F4B1C782F4BE4B21EE02F4B1B789D4204D82E4B1C782E4BE4B215E02D4B1B789D4204D89F
:402100002C4B1C782C4BE4B20CE02C4B1B789D4204D82B4B1C782B4BE4B203E02A4B1C782A4BE4B21B78EA1EDBB20193284B294F9A5C059302922F2A04D92A2D02D9192659
:402140003E6008E03F233E681E40029BB34205D2204B029A1A60052000F0E2F81B4B1E4AED182B780520DBB213601C4B019A1C601B4B1A60FFF79AFF029BB34206D9059B01
:40218000039A05209B5C3B6000F0CAF8049800F0D5F807B0F0BDC046C0F1FF0FC1F1FF0FC2F1FF0FC3F1FF0FC4F1FF0FC5F1FF0FC6F1FF0FC7F1FF0FC8F1FF0FC9F1FF0FB3
:4021C000CAF1FF0FCBF1FF0FCCF1FF0FCDF1FF0F422A00002CFF0B4028FF0B401CFF0B4020FF0B4010B500F0A5F80421034A13688B43136030BF00F0A1F810BD10ED00E0EF
:402200008023024A11780B431370704771000F407F23024A11780B401370704771000F401023044904480A781A4201D00288FAE77047C04661000F40A0100F403F2110B5AB
:40224000114A124C13788B4336390B431370104B08391A780A431A7023780E4A0B432370C82313800C4A13800C4A138004220C4B1A7000F05FF8102223781343237000F0EF
:402280005DF8FFF7CDFF10BD71000F4091000F4090000F4000100F4080100F4040100F4081000F4010B5054C2378002B03D1FFF7C5FF01232370FFF7A3FF10BD6701002000
:4022C000014B1878C0B2704761000F4010B5040000F030F8044A054B1168A4050B401C43146000F02BF810BD00E400E0FFFF3FFF10B50424044B1C60044B98640320FFF76E
:40230000E5FF034B1C6010BD80E100E00000002000E100E00422014B1A60704780E200E00230800804D0C0460138FDD1C046C046C0467047EFF3108072B6704780F310885B
:402340007047C04602B4714649084900095C49008E4402BC7047C04603B47146490840004900095A49008E4403BC704703460B437FD4002243088B4274D303098B425FD3EC
:40238000030A8B4244D3030B8B4228D3030C8B420DD3FF22090212BA030C8B4202D31212090265D0030B8B4219D300E0090AC30B8B4201D3CB03C01A5241830B8B4201D3FA
:4023C0008B03C01A5241430B8B4201D34B03C01A5241030B8B4201D30B03C01A5241C30A8B4201D3CB02C01A5241830A8B4201D38B02C01A5241430A8B4201D34B02C01A29
:402400005241030A8B4201D30B02C01A5241CDD2C3098B4201D3CB01C01A524183098B4201D38B01C01A524143098B4201D34B01C01A524103098B4201D30B01C01A5241AA
:40244000C3088B4201D3CB00C01A524183088B4201D38B00C01A524143088B4201D34B00C01A5241411A00D201465241104670475DE0CA0F00D04942031000D34042534070
:4024800000229C4603098B422DD3030A8B4212D3FC22890112BA030A8B420CD3890192118B4208D3890192118B4204D389013AD0921100E08909C3098B4201D3CB01C01AF1
:4024C000524183098B4201D38B01C01A524143098B4201D34B01C01A524103098B4201D30B01C01A5241C3088B4201D3CB00C01A524183088B4201D38B00C01A5241D9D2E4
:4025000043088B4201D34B00C01A5241411A00D20146634652415B10104601D34042002B00D54942704763465B1000D3404201B5002000F005F802BD0029F8D016E770475E
:402540007047C046014B18687047C046440100200E4B70B500251E000D4CE41AA410A54204D0AB00F35898470135F8E700F082FA084B00251E00084CE41AA410A54204D07C
:40258000AB00F35898470135F8E770BD802A0000802A0000802A0000882A000003008218934202D019700133FAE77047104B70B51C680500A36B002B15D1182000F08EF8E5
:4025C0000C4BA06303800C4B012243800B4B83800B4BC3800B4B038105234381063383810023026143610022A36B1D615A6170BD440100200E330000CDABFFFF34120000AA
:402600006DE6FFFFECDEFFFF154B10B51C68A36B002B15D1182000F061F8124BA0630380114B01224380114B8380114BC380114B03810523438106338381002302614361E2
:40264000A46B0D4A206961690C4B00F0C5F80122002380185941206161614800400810BD440100200E330000CDABFFFF341200006DE6FFFFECDEFFFF2D7F954C2DF45158B3
:402680000023C25C0133002AFBD1581E7047000013B5084B040000226946186800F00CF8002802DA01235B4200930098002C00D0206016BD44010020002370B5064C0500DB
:4026C00008001100236000F0B3F8431C03D12368002B00D02B6070BD7801002010B5034B0100186800F004F810BDC04644010020032370B5CD1C9D43083506000C2D01D27E
:402700000C2501E0002D01DBA94202D90C23336048E0300000F05EF8234B1C681A002100002913D00B685B1B0DD40B2B02D90B60CC181EE08C4202D1636813601AE04B686B
:4027400063600C0016E00C004968E9E7174C2368002B03D1300000F02BF820602900300000F026F8431C18D00323C41C9C43A0420DD12560300000F02EF8200007220B30B5
:40278000231D9043C31A0ED05A42E2500BE0211A300000F00DF8431CEBD10C233000336000F019F8002070BD6C01002068010020002370B5064C050008002360FFF77AFA2D
:4027C000431C03D12368002B00D02B6070BDC0467801002070477047F0B54F464646C0B41604360C9946330005042C0C070C150C63437E436F4365431C0CAD1964199C4630
:40280000A64203D980235B02984647446346250CEF191D044B464A4343432D0C240464199918C91920000CBC90469946F0BDC04658220120014B40421A60704778010020D0
:4028400000000000444546434F4E32350000000003000F403A300F401D310F404F320F402E330F4006400F4002410F4002420F4002430F4002600F40810D820D830D4030FE
:40288000410449FF4AFF4BFF4DA04F0450185A045F01604062C06440654066C068C06AC06CC06EC08202870396029902AE01B201B301B402B702BE10C030C104C5D1C6020E
:4028C000C807C9FFCAFFCBFFCDAFCE0FCF04D018D280D405D604D804D904DA04DB04DF01E040E2C0E440E540E6C0E8C0EAC0ECC0EEC006800D0817401C101D081E08264013
:40290000272037203F0840104280450846804F0956805E885F01674077408740C010C220C480CC20CE40D0C3D6D0D8800301060116051E0C2D012E023008320234013604EA
:4029400037013E104030410645D046204710482A49FF4AFF4BFF4DA04F04501852805405580459045A045B045F01604062C06440654066C068C06AC06CC06EC08A05920252
:402980009B01A101A60CAA01B008B202B401B604B701BE10C030C106C5D1C702C813C9FFCAFFCBFFCDA0CF04D018D280D405D804D904DA04DB04DF01E040E2C0E440E5401B
:4029C000E6C0E8C0EAC0ECC0EEC00010062009020D080F0210281740181219021A041D081E081F422240264029022F0230203F0240104508482849014F21500856205711CE
:402A000059015A845E885F017102774080019780AF40C022C2A8C486CA11CC04CE80D042D224D6DBE404520873028702D420DC20E640AE08EA106702D601830197020101BA
:402A40001001030405060708090A0B0C0E0F101112131415161718191B1C1D1E1F2021222325262728292A2B2E2F30313233343543000000F8B5C046F8BC08BC9E4670474C
:402A8000A51200002D1D0000F8B5C046F8BC08BC9E4670477D120000A82A0000C800002080000000380000000000000080010020010000000000E02EC05D00001800000069
:402AC00000366E010000000000000000000000000000000000000000000000000000000000000000702A000000000000000000000000000000000000000000000000000097
:402B0000000000000000000000000000000000000000000000000000000000000000000000000000E400002000000000000000000000000000000000000000000000000091
:402B40000000000000000000000000000000000000000000000000000000000000000000000000000000000000000000000000000000000000000000000000000000000055
:402B80000000000000000000000000000000000000000000000000000000000000000000000000000000000000000000000000000000000000000000000000000000000015
:402BC00000000000000000000000000000000000000000000000000000000000000000000000000000000000000000000000000000000000000000000000000000000000D5
:402C00000000000000000000000000000000000000000000000000000000000000000000000000000000000000000000000000000000000000000000000000000000000094
:407FC000209110000020000000001B000000000000000100000001000000000000000000000000000000000000000000000000000000000000000000000000000000000083
:0200000490303A
:02000000CE3AF6
:0200000490402A
:20000000FFFFFFFF00000000000000000000000000000000000000000000000000000000E4
:0200000490501A
:0C000000000204C81193110004D7DFCDEA
:0200000490600A
:0100000001FE
:00000001FF