:400000000010002011000000B5030000B503000008B500F079FA00F0CFF90000F7B572B680220021D200554800F0D7FF802200215348D20000F0D1FF0023191C514C185915
:400040001034C2B20192071CFF2297434A00A4180022019ED5B2AE4209D05500665D6519B446BC446D78664635700132F1E7C0B204330918102BE1D1434BC02292041A60F8
:40008000424B99221A60424A00231360414A80211160414AC9031160404A40211160404AC021490311603F4A312113603E4B02221A603E4B802019603D4B3E491A60992317
:4000C0001B040B603C49000608603C493C200B603B4B8021890519603A493B4B19603B4B19780A431A703A4A117881431420014311701A7816210A431A70364A8023116893
:40010000DB020B431360344B141C1878334BC0B21978334BC9B21A78172A05D9314A58789978033B9342F6D12F4B192218602F4B052019602E4B1A6000F052FD2D4B05206D
:400140001A782D4BD2B21A6000F088FE22682B4B134023602A4A2B4B1A602B4B10221A602A4B20221A602A4B802212061A60294A294B1A60294A2A4B1A60F7BD00300F40D5
:4001800000400F40F80F000004000140100001400C000140000004400800044000010440080104400803044000040440080404401804044000500F4004500F4010500F406C
:4001C00018500F40100001002001054000700F4001700F4000010B40CCF1FF0FCDF1FF0FC9F1FF0FBDF1FF0F1CFF0B4020FF0B402CFF0B40E5F1FF0F28FF0B40FFFFFBFF57
:400200000600008004010B40080202402002024008010B401000008000000240AF0400804000024010B5064C2378002B07D1054B002B02D0044800E000BF0123237010BDEC
:40024000F000002000000000F40F000008B5084B002B03D00748084900E000BF07480368002B03D0064B002B00D0984708BDC04600000000F40F0000F4000020D000002069
:400280000000000010B562B600F0A2FC00280ED16524012000F0CCFD00F09AFC002806D1013CE4B2002CF4D1034B40221A6000F081FC00F0D3FAFEE7C000002008B500F05A
:4002C0000BFB00F043FB00F0ABFB08BD70B5054B0D1C161C0024C9B21C8000F095FB3580201C70BD0C010020F0B50A275F4387B003900591151C00262D4CBE4219DA00F00E
:4003000013FB80B220802388002B0CD00220268800F08EFD00F008FB80B220802388B6B2B342F3D807E00120013600F081FDB6B2E2E7052600E0002600272F802388002B8D
:4003400033D023889BB2019301992B885A18059992B22A808A4221D2019ABB189BB2029302998F4209D07B1C9BB20493039BDF1900F0C0FA3870049FF2E772B62388019A02
:400380009B1A9BB2238062B6039A5318013B1B78172B08D0052000F04BFD04E02B8000F0D5FA052601E0029FC8E7301C07B0F0BD0C010020FEE7000070B51048104B0138B5
:4003C000421C15D01E685C689D680022A118AA4203D0B158A1500432F8E7DA680D1C4C1B944202D0002410C1F9E710330138E7E700F0C4FDFFF746FFFEE7C0460100000051
:400400004810000008B500239A00032B02D80D49895800E00C490D4801338150302BF3D1FFF7FCFD0A4B00221A600A4B1A68002A00D11A608023DB051A6801210A431A60E3
:4004400008BDC04600000000B503000000000020C8000020C0000020004710B50023002A05D0013A4418A45C1B19DBB2F7E7181C10BD0000013800B509282AD8C901494236
:4004800000F068FD0507090B0D0F1614181B144B08E0144B12E0144B0DE0144B0EE0144B00E0144BC9180878C0B217E0124B02E0124B00E0124BC9180CE0124BC9180B784E
:4004C00048788A780002120410431843CB781B0603E000210B7848780002184300BDC046C07F0000C17F0000C57F0000C97F0000D07F0000D17F0000D67F0000D27F000059
:40050000D47F0000D87F00000C4B10B51A6810231A400B4B00D11A601A68802A0DD100240220211C1C60FFF7A5FFA04205D0211C0220FFF79FFFFFF78FFF10BD00030B4059
:40054000C0000020F8B5051C291C0320FFF792FF291C041C0420FFF78DFF671CFF013F18291C0320FFF786FF00240130C001261CB84209D203785A1ED2B2FD2A00D801264C
:400580001C19E4B20130F3E70120291CFFF772FF6442E4B20623844203D17242564176423340181CF8BD0000F0B5A44CA544FFF785FE62B600260096002506AC03AE962130
:4005C000201C4900321CFF23FFF78EFE0028F4D13188062900D88AE022780423012A54D1E778A2783F021743E2195679B44616790196FE1D8E427FD89279172A45D1FB18A7
:400600009BB2002B08D09CA98D4ECA1892191278013B801880B2F3E7019B614640420A0280B21A43082382422FD167E0342B00D09DE0009901295AD1032F58D151A80021AE
:40064000802200F0CAFC802551A948192639ED19FA1EFF39ADB200F0B7FC832D49D1A079637900021843774B36021B6880191A6880B2D3099BB2560601D001339BB29842D4
:400680007BD20127009700250A2300210120207068466A46437681766B4600200E32D8760B1D11809BB29CAFFE18654F013BF61936789BB2801980B2002BF4D19CAE624F86
:4006C0007318DE194042614F80B23070DE19000A30705F4807311B181720187089B2201C9623FFF7F3FD68E7009E012E1BD00423CBE70126009600250323C6E763782679DD
:40070000181C31380A2801D90523BEE700F02CFCECFF1400FCFF8EFF3F00FCFF430054008EFF63008B00002FE1D1381CFFF70AFF43424341237173E000980128D7D1012F9B
:40074000D5D1002ED3D13F4B1B681B68DA0BD2B2DB09DBB2002A01D080235B0023711B0A6371FF23A3710023E37104218EE7009B012BBCD1022FBAD966E751A900F044FA3D
:40078000002800D07DE701260096051C12E0009F012FACD110E7009E012EA8D19623EE195B009E42A8D851A948193A1C07A900F00BFCB5B2002368E7002F98D104AB254A22
:4007C000191C41CA41C107AA41CB41C2012600963B1C08215AE70098012888D1032F86D1A37962791B021A43310251180192C90100208022FFF731FE071C002E0ED10199BB
:40080000FF290BD1311C0520FFF734FE311C3F1A0620FFF72FFEFFB23F1AFFB27F4227710023012132E70020FFF78CFE002802D1094B80221A6000F0EFFA58E78CFDFFFF0F
:40084000A7FDFFFFD4000020ACFDFFFFADFDFFFFAEFDFFFF1C100000C000002070B50020FFF770FE0024A04200D00624114E00203368C0211D682A1CC03AFFF7EEFD7368B9
:400880001B78181AC0B2984201D1002D02D1002000F0C0FA084B19681A1C402901D0002C03D000231360FFF77FFE80221A6000F0B3FA70BDD4000020C000002008B5054B78
:4008C0008022196812060A431A600A2000F08EFA08BDC0460000064010B5054C2378002B03D100F0BFF801232370FFF7E7FF10BD10010020094B0A4A1968136899420BD001
:4009000011684B1C4039481E814149420B400549C85C1360C0B200E000207047B0010020280100206C010020064B074A1B6811688B4202D31068181A02E012684133981A3F
:400940007047C046B0010020280100200C4A0D4B002130B5106811601D68802464022C431C601D68084C2C401C60084B1C68084B1C60084B19700849084B1960106030BDCC
:40098000C80F064004030640FFFFFEFF28010020B0010020AD010020ED0F0000C00F0640124910B50A68531C3F3A541EA241524213400F4A1468A342FBD00C6812689442DA
:4009C00008D10C4A14680F222240082A02D00A4B18600AE0094C02222260094CC0B2E0540B60084B19680A431A6010BD24010020200100200802064040020640800F064002
:400A00002C010020880F064038B5041C4518AC4204D02078FFF7C4FF0134F8E738BD00000B4A0023116810B513600A4B80201C684002204318601C68074820401860074B4A
:400A40001868074B186002239943116010BDC046880F064004020640FFFFFEFF20010020240100201D4A1E4B10B51A601D4B00241C601D4B01221A601C491D4B07200B60C2
:400A80001C4908601C490A200C601C490A601C4A13601C4B1C6000F0B3F90A20032100F08BF919490A2000F07FF9184B04221C60174B1C60174B1C60174B1C60174B1A6016
:400AC000174B1C60174B1C60174B1C60174B1C70174B1C60174B1C6010BDC0460B000002000006404000064048000640000306400700008004030640100306404400064078
:400B00000002064004020640710E0000880E0640C80E0640480F0640080F0640C80F0640880F0640B001002028010020AD01002024010020200100200E4B8422D2041A60F9
:400B40001968802252020A431A600B490B4A0A60196819600A4BC32189001960094B00211960094B1C211960084B1A60084A094B1A60704700010540080105401027000088
:400B800024010540380105402801054014010540881300000C01054008B500F02BF8044B01211A680A431A6000F028F808BDC0460000054010B5054C2378002B03D1FFF748
:400BC000BBFF01232370FFF7E7FF10BD18010020024B18680006C00F7047C046040004400230800804D0C0460138FDD1C046C046C0467047EFF3108072B6704780F310883B
:400C00007047C046C046C046F0B50024CBB0069404900794FF2800D9A4E0A14200D1A1E008AD8022281C00F0CFF9231C211C221C029498002858002802D01218014302936D
:400C40000133202BF5D1002A05D1002900D08EE00191039102E0002001900390484F7F2328AE291C80222AA82897464C736000F0ABF9454A454B266013602168090F0A2910
:400C800003D022680F23134000E000230693069F002F69D1FFF7AEFF3D4A3E4B116807971960069B0590002B14D13B4A04982892289A01040A43289228AA22603249374A26
:400CC0000A602268120F0A2A03D02E4B1A680F2313400693069F002F38D1019A002A35D0391C8022281C00F078F90298039A08A983005A50224B2AA8289380227F23736056
:400D000000F062F9214820492660086023681B0F0A2B03D01B4B1F680F231F400697069B002B13D11E4A04982892289A01040A43289215491B4A26600A602268120F0A2A02
:400D400003D0104B1A680F2313400693079B002B04D1104A0E481268026007930598FFF74DFF01E00423069306984BB0F0BD02998B00E85801210390EA5001916EE7C046D5
:400D8000B6D7000008000040040000400400008008010B401C010020B6D8000005000080B6D9000006000080024A83009B181868196070474000002038B5041C0D1CFFF71F
:400DC00019FFA308084A9B009B1803221440944019680634A2409143A5400C1C2C431C60FFF70CFF38BDC04600E400E01F23184001238340181C014B1860704700E100E029
:400E00001F23184001238340181C014B1860704780E100E001BE7047034B04491A6892B20A431A607047C0460CED00E00400FA0510B5041C8022074B1202944205D91868E9
:400E4000FFF7CEFE044BE418F4E758686043FFF7C7FE10BDDC0000200080FFFF08B5034B1B7A5843FFF7BCFE08BDC046DC000020274B10B51B68002B00D09847254B1B68EC
:400E80005A071DD5244B1B681A0716D0234B244A186811684B1C40394C1EA14149420B40204909688B4203D11F4B20221A70E9E71E49C0B2C8541360E4E71D4B04221A6053
:400EC0001C4B1B689A0721D51B4B1A680F231340082B18D0194B1A4A1968136899420DD011684B1C3F39481E814149420B401549C85C1549C0B208601360E5E7134B02219D
:400F00001A688A431A60124B02221A6010BDC04614010020CC0F06400803064040030640B001002028010020AD0100206C010020C00F06408C0F06400802064024010020EA
:400F4000200100202C01002040020640880F0640800F064002B4714649084900095C49008E4402BC7047C04603B47146490840004900095E49008E4403BC704770B50E4BE9
:400F80000E4D0024ED1AAD101E1CAC4204D0A300F35898470134F8E700F044F8084B094D0024ED1AAD101E1CAC4204D0A300F35898470134F8E770BD3010000030100000CA
:400FC000301000003810000010B50023934203D0CC5CC4540133F9E710BD031C8218934202D019700133FAE77047000078100000750000000000000001330F4003410F40F0
:4010000004430F4002600F40E61062048E04D84018808C40C608E608020111019311C804111E0101F8B5C046F8BC08BC9E4670474D02000005040000F8B5C046F8BC08BC44
:401040009E4670472502000058100000D000002020000000C800000000000000EC0F0000F00F00000000E02EC05D00001800000000366E010000000000000000000000008C
:4010800000100020911000003D2700003D27000080B500AF024B83F3088801F081FBC0460010002080B500AF124B124A12688021C9020A431A60182001F0F4FF0D4B0D4AA8
:4010C00012680D490A401A600C4B0D4A1A600D4B10221A600C4B802212061A60054B00221A600A4B0A4A1A600A4B00221A60C046BD4680BD00010B40FFFFFBFF04010B40CB
:40110000060000803002024008010B40000002406F1700800C020B4080B582B000AF72B64E4B01221A70FB1D00221A7022E0FB1D1A7813005B009B185B00494A9B183B606F
:401140003B681A78597809020A43997809040A43DB781B06134318003B681A795B791B0213439BB2190001F091FAFB1D1A78FB1D01321A70FB1D1B78012BD8D9394A3A4B56
:401180001100180001F092FA384B30221A60384BC02292041A60374BEE2212021A60364B992212041A60354BA222D2031A60344B992212041A60334B992212041A60324B36
:4011C000802252051A60314B992212041A60304B04221A602F4B04221A602F4A2E4B1B78DBB23C218B43DBB214210B43DBB213702A4A2A4B1B78DBB216210B43DBB2137085
:40120000274B82221A60274B274A1A60274BC02212021A60264B04221A60264B264A1A60264B20221A60264B40221A60254BDB2212041A60244B10221A60244BB622920107
:401240001A60234B802292001A60FFF72BFF01F06FFAC046BD4602B080BDC0461C700F40003F0000343F00000C3F000000000140080001400C00014000500F4008500F406B
:4012800010500F4020500F4028500F4030500F402000004000800F4001700F4000700F400000044008000440B60158000C0004400001044008010440800018000C01044012
:4012C000000204400802044000030440080304400C03044010B5064C2378002B07D1054B002B02D0044800E000BF0123237010BD5001002000000000E03A0000084B10B55D
:40130000002B03D00749084800E000BF07480368002B00D110BD064B002BFBD09847F9E70000000054010020E03A0000D00000200000000080B500AF62B6042000F03AFC22
:40134000052000F037FC01F07DF9012000F08AFC0E4B03221A7001F0FBFF0C4B1B78DBB2022B09D0032B0CD0012B0DD1084B1900032001F04FF807E0054B180000F0C4FADF
:4013800002E001F0CBFFC046E7E7C0466C010020E43A000080B500AF022001F065F8031E10D0012000F066FBFA235B00180001F07BFF012000F0FEFBFA235B00180001F0BE
:4013C00073FF00E0C046BD4680BDC04680B500AF022001F049F8031E10D0022000F04AFBFA235B00180001F05FFF022000F0E2FBFA235B00180001F057FF00E0C046BD4631
:4014000080BDC04680B582B000AF0200FB1D1A70022001F029F8031E00D171E2FB1D1B780A3B702B00D96CE29A00F04BD3181B689F46FFF7AFFFFFF7C9FFFFF7ABFFFFF764
:40144000A9FFFFF7A7FFFFF7A5FFFFF7A3FFFFF7BDFF56E2FFF79EFFFFF7B8FFFFF79AFFFFF798FFFFF796FFFFF794FFFFF7AEFFFFF790FF45E2FFF78DFFFFF7A7FFFFF739
:4014800089FFFFF787FFFFF785FFFFF783FFFFF79DFFFFF79BFF34E2FFF77CFFFFF796FFFFF778FFFFF776FFFFF774FFFFF78EFFFFF770FFFFF76EFF23E2FFF76BFFFFF71B
:4014C00085FFFFF767FFFFF765FFFFF763FFFFF77DFFFFF75FFFFFF779FF12E2FFF75AFFFFF774FFFFF756FFFFF754FFFFF752FFFFF76CFFFFF76AFFFFF74CFF01E2FFF7C5
:4015000049FFFFF763FFFFF745FFFFF743FFFFF741FFFFF75BFFFFF759FFFFF757FFF0E1FFF738FFFFF752FFFFF734FFFFF732FFFFF74CFFFFF72EFFFFF72CFFFFF72AFF40
:40154000DFE1FFF727FFFFF741FFFFF723FFFFF721FFFFF73BFFFFF71DFFFFF71BFFFFF735FFCEE1FFF716FFFFF730FFFFF712FFFFF710FFFFF72AFFFFF70CFFFFF726FF89
:40158000FFF708FFBDE1FFF705FFFFF71FFFFFF701FFFFF7FFFEFFF719FFFFF7FBFEFFF715FFFFF713FFACE1FFF7F4FEFFF70EFFFFF7F0FEFFF7EEFEFFF708FFFFF706FF54
:4015C000FFF7E8FEFFF7E6FE9BE1FFF7E3FEFFF7FDFEFFF7DFFEFFF7DDFEFFF7F7FEFFF7F5FEFFF7D7FEFFF7F1FE8AE1FFF7D2FEFFF7ECFEFFF7CEFEFFF7CCFEFFF7E6FE5C
:40160000FFF7E4FEFFF7E2FEFFF7C4FE79E1FFF7C1FEFFF7DBFEFFF7BDFEFFF7BBFEFFF7D5FEFFF7D3FEFFF7D1FEFFF7CFFE68E1FFF7B0FEFFF7CAFEFFF7ACFEFFF7C6FEE9
:40164000FFF7A8FEFFF7A6FEFFF7A4FEFFF7A2FE57E1FFF79FFEFFF7B9FEFFF79BFEFFF7B5FEFFF797FEFFF795FEFFF793FEFFF7ADFE46E1FFF78EFEFFF7A8FEFFF78AFE57
:40168000FFF7A4FEFFF786FEFFF784FEFFF79EFEFFF780FE35E1FFF77DFEFFF797FEFFF779FEFFF793FEFFF775FEFFF773FEFFF78DFEFFF78BFE24E1FFF76CFEFFF786FEE5
:4016C000FFF768FEFFF782FEFFF764FEFFF77EFEFFF760FEFFF75EFE13E1FFF75BFEFFF775FEFFF757FEFFF771FEFFF753FEFFF76DFEFFF74FFEFFF769FE02E1FFF74AFEE3
:40170000FFF764FEFFF746FEFFF760FEFFF742FEFFF75CFEFFF75AFEFFF73CFEF1E0FFF739FEFFF753FEFFF735FEFFF74FFEFFF731FEFFF74BFEFFF749FEFFF747FEE0E072
:40174000FFF728FEFFF742FEFFF724FEFFF73EFEFFF73CFEFFF71EFEFFF71CFEFFF71AFECFE0FFF717FEFFF731FEFFF713FEFFF72DFEFFF72BFEFFF70DFEFFF70BFEFFF751
:4017800025FEBEE0FFF706FEFFF720FEFFF702FEFFF71CFEFFF71AFEFFF7FCFDFFF716FEFFF7F8FDADE0FFF7F5FDFFF7F3FDFFF70DFEFFF70BFEFFF7EDFDFFF7EBFDFFF753
:4017C000E9FDFFF7E7FD9CE0FFF7E4FDFFF7E2FDFFF7FCFDFFF7FAFDFFF7DCFDFFF7DAFDFFF7D8FDFFF7F2FD8BE0C046F03A0000FFF7D0FDFFF7CEFDFFF7E8FDFFF7E6FD06
:40180000FFF7C8FDFFF7C6FDFFF7E0FDFFF7C2FD77E0FFF7BFFDFFF7BDFDFFF7D7FDFFF7D5FDFFF7B7FDFFF7B5FDFFF7CFFDFFF7CDFD66E0FFF7AEFDFFF7ACFDFFF7C6FD4E
:40184000FFF7C4FDFFF7A6FDFFF7C0FDFFF7A2FDFFF7A0FD55E0FFF79DFDFFF79BFDFFF7B5FDFFF7B3FDFFF795FDFFF7AFFDFFF791FDFFF7ABFD44E0FFF78CFDFFF78AFD30
:40188000FFF7A4FDFFF7A2FDFFF784FDFFF79EFDFFF79CFDFFF77EFD33E0FFF77BFDFFF779FDFFF793FDFFF791FDFFF773FDFFF78DFDFFF78BFDFFF789FD22E0FFF76AFDBE
:4018C000FFF768FDFFF782FDFFF780FDFFF77EFDFFF760FDFFF75EFDFFF75CFD11E0FFF759FDFFF757FDFFF771FDFFF76FFDFFF76DFDFFF74FFDFFF74DFDFFF767FD00E0D8
:40190000C046BD4602B080BD80B584B000AF78600023FB600EE0022000F0A6FD031E12D07A68FB68D3181B781800FFF76BFDFB680133FB607B68180001F0F2FF0200FB682E
:401940009A42E8D800E0C046BD4604B080BDC04680B582B000AF0200FB1D1A70BB1D0A1C1A70FB1D1B78022B09D0032B0CD0012B00D016E00D4BBA1D12785A7011E00C4B31
:40198000BA1D12785A700CE0BB1D1B7819000120FFF7DEFFBB1D1B7819000220FFF7D8FFC046C046BD4602B080BDC046840100208001002080B582B000AF0200FB1D1A7021
:4019C000BB1D0A1C1A70FB1D1B78052B25D89A00144BD3181B689F46134BBA1D12781A701BE0124BBA1D12781A7016E0BB1D1B7819000120FFF7DEFFBB1D1B78190002209B
:401A0000FFF7D8FF09E00A4BBA1D12781A7004E0084BBA1D12781A70C046C046BD4602B080BDC046B43C000084010020800100207C0100207801002080B582B000AF020006
:401A4000FB1D1A70FB1D1B78012B02D0022B04D007E0064B5B78DBB204E0054B5B78DBB200E0FF231800BD4602B080BD840100208001002080B582B000AF0200FB1D1A70E2
:401A8000FB1D1B78052B00D989E09A00464BD3181B689F460120FFF7CFFF0300072B2BD89A00424BD3181B689F4601F0D5F923E0012001F0A9FA1FE001F0CEF9012001F0B4
:401AC000A3FA19E0012001F0A3F815E001F0C4F9012001F09DF80FE0012001F095FA012001F096F808E001F0B7F9012001F08CFA012001F08DF8C04601210120FFF75AFFD9
:401B00004DE00220FFF798FF0300072B2BD89A00274BD3181B689F4601F0C6F823E0012001F09AFA1FE001F0BFF8012001F094FA19E0012001F090F815E001F0B5F801204C
:401B400001F08AF80FE0012001F086FA012001F083F808E001F0A8F8012001F07DFA012001F07AF8C04601210220FFF723FF16E00120FFF77FFF0220FFF77CFF0FE00120CE
:401B800000F0BEFE01210420FFF714FF07E0012000F08EFE01210520FFF70CFFC046C046BD4602B080BDC046CC3C0000E43C0000043D000080B582B000AF0200FB1D1A7037
:401BC000FB1D1B78052B35D89A001C4BD3181B689F4601F0A5F9002001F016FA002001F017F800210120FFF7E5FE23E001F0C0F8002001F031FA002001F02EF8002102205C
:401C0000FFF7D8FE16E00120FFF7D4FF0220FFF7D1FF0FE0002000F073FE00210420FFF7C9FE07E0002000F043FE00210520FFF7C1FEC046C046BD4602B080BD243D00000C
:401C400080B500AF0120FFF7B5FF0220FFF7B2FF0420FFF7AFFF0520FFF7ACFFC046BD4680BDC04680B582B000AF0200FB1D1A70FFF7E6FFFB1D1B7819000120FFF768FE3C
:401C8000FB1D1B7819000220FFF762FEC046BD4602B080BD80B582B000AF0200FB1D1A70012000F0E1FB031E12D0FB1D1B781800FFF7E0FEFA235B00180001F0F5FAFB1D27
:401CC0001B781800FFF776FFFA2001F0EDFA00E0C046BD4602B080BD80B582B000AF0200FB1D1A70012000F0BFFB031E11D0FB1D1B781800FFF7BEFE084B180001F0D4FADE
:401D0000FB1D1B781800FFF755FFFA2001F0CCFA00E0C046BD4602B080BDC046DC05000080B500AF012000F09FFB031E05D0FA239B00180001F0B8FA00E0C046BD4680BDE8
:401D400080B582B000AF0200FB1D1A70BB1D0A1C1A70012000F088FB031E00D155E3BB1D1B780A3B702B00D950E39A00EA4BD3181B689F46FB1D1B781800FFF78BFFFB1D8F
:401D80001B781800FFF7A8FFFFF7CAFF3EE3FB1D1B781800FFF7A0FFFB1D1B781800FFF779FFFB1D1B781800FFF774FFFB1D1B781800FFF76FFFFFF7B3FF27E3FB1D1B78C2
:401DC0001800FFF789FFFB1D1B781800FFF762FFFB1D1B781800FFF77FFFFB1D1B781800FFF758FFFFF79CFF10E3FB1D1B781800FFF772FFFB1D1B781800FFF74BFFFB1D23
:401E00001B781800FFF746FFFFF78AFFFEE2FB1D1B781800FFF73EFFFFF782FFF6E2FB1D1B781800FFF736FFFB1D1B781800FFF731FFFB1D1B781800FFF74EFFFB1D1B7890
:401E40001800FFF727FFFFF76BFFDFE2FB1D1B781800FFF741FFFB1D1B781800FFF73CFFFB1D1B781800FFF715FFFFF759FFCDE2FB1D1B781800FFF70DFFFB1D1B781800CE
:401E8000FFF708FFFB1D1B781800FFF703FFFB1D1B781800FFF7FEFEFFF742FFB6E2FB1D1B781800FFF7F6FEFB1D1B781800FFF7F1FEFFF735FFA9E2FB1D1B781800FFF723
:401EC000E9FEFB1D1B781800FFF706FFFB1D1B781800FFF701FFFB1D1B781800FFF7FCFEFFF71EFF92E2FB1D1B781800FFF7F4FEFB1D1B781800FFF7CDFEFB1D1B78180058
:401F0000FFF7EAFEFFF70CFF80E2FB1D1B781800FFF7C0FEFB1D1B781800FFF7DDFEFB1D1B781800FFF7B6FEFB1D1B781800FFF7B1FEFFF7F5FE69E2FB1D1B781800FFF793
:401F4000CBFEFB1D1B781800FFF7C6FEFFF7E8FE5CE2FB1D1B781800FFF7BEFEFB1D1B781800FFF797FEFFF7DBFE4FE2FB1D1B781800FFF7B1FEFB1D1B781800FFF7ACFE73
:401F8000FB1D1B781800FFF7A7FEFFF7C9FE3DE2FB1D1B781800FFF77DFEFB1D1B781800FFF79AFEFB1D1B781800FFF795FEFB1D1B781800FFF76EFEFFF7B2FE26E2FB1D2B
:401FC0001B781800FFF788FEFB1D1B781800FFF783FEFB1D1B781800FFF75CFEFB1D1B781800FFF779FEFFF79BFE0FE2FB1D1B781800FFF74FFEFB1D1B781800FFF76CFE94
:40200000FB1D1B781800FFF745FEFFF789FEFDE1FB1D1B781800FFF73DFEFB1D1B781800FFF738FEFB1D1B781800FFF733FEFFF777FEEBE1FB1D1B781800FFF74DFEFFF74B
:402040006FFEE3E1FB1D1B781800FFF723FEFB1D1B781800FFF71EFEFB1D1B781800FFF73BFEFFF75DFED1E1FB1D1B781800FFF711FEFB1D1B781800FFF70CFEFB1D1B7855
:402080001800FFF707FEFB1D1B781800FFF724FEFFF746FEBAE1FB1D1B781800FFF7FAFDFB1D1B781800FFF717FEFB1D1B781800FFF712FEFFF734FEA8E1FB1D1B781800A2
:4020C000FFF70AFEFB1D1B781800FFF7E3FDFB1D1B781800FFF7DEFDFB1D1B781800FFF7FBFDFFF71DFE91E1FB1D1B781800FFF7F3FDFB1D1B781800FFF7CCFDFB1D1B78AB
:402100001800FFF7E9FDFB1D1B781800FFF7E4FDFFF706FE7AE1C0463C3D0000FB1D1B781800FFF7D9FDFB1D1B781800FFF7D4FDFB1D1B781800FFF7ADFDFB1D1B781800FE
:40214000FFF7A8FDFFF7ECFD60E1FB1D1B781800FFF7C2FDFB1D1B781800FFF7BDFDFB1D1B781800FFF7B8FDFB1D1B781800FFF7B3FDFB1D1B781800FFF7AEFDFFF7D0FDBB
:4021800044E1FB1D1B781800FFF784FDFB1D1B781800FFF7A1FDFB1D1B781800FFF79CFDFB1D1B781800FFF797FDFB1D1B781800FFF792FDFFF7B4FD28E1FB1D1B7818000F
:4021C000FFF768FDFB1D1B781800FFF763FDFB1D1B781800FFF780FDFB1D1B781800FFF77BFDFB1D1B781800FFF776FDFFF798FD0CE1FB1D1B781800FFF74CFDFB1D1B78B3
:402200001800FFF747FDFB1D1B781800FFF742FDFB1D1B781800FFF75FFDFB1D1B781800FFF75AFDFFF77CFDF0E0FB1D1B781800FFF730FDFB1D1B781800FFF72BFDFB1D11
:402240001B781800FFF726FDFB1D1B781800FFF721FDFB1D1B781800FFF73EFDFFF760FDD4E0FB1D1B781800FFF714FDFB1D1B781800FFF70FFDFB1D1B781800FFF70AFD79
:40228000FB1D1B781800FFF705FDFB1D1B781800FFF700FDFFF744FDB8E0FB1D1B781800FFF71AFDFB1D1B781800FFF7F3FCFB1D1B781800FFF7EEFCFB1D1B781800FFF70A
:4022C000E9FCFB1D1B781800FFF7E4FCFFF728FD9CE0FB1D1B781800FFF7FEFCFB1D1B781800FFF7F9FCFB1D1B781800FFF7D2FCFB1D1B781800FFF7CDFCFB1D1B7818009C
:40230000FFF7C8FCFFF70CFD80E0FB1D1B781800FFF7E2FCFB1D1B781800FFF7DDFCFB1D1B781800FFF7D8FCFB1D1B781800FFF7B1FCFB1D1B781800FFF7ACFCFFF7F0FC25
:4023400064E0FB1D1B781800FFF7C6FCFB1D1B781800FFF7C1FCFB1D1B781800FFF7BCFCFB1D1B781800FFF7B7FCFB1D1B781800FFF790FCFFF7D4FC48E0FB1D1B78180055
:40238000FFF788FCFB1D1B781800FFF7A5FCFB1D1B781800FFF77EFCFB1D1B781800FFF79BFCFB1D1B781800FFF774FCFB1D1B781800FFF791FCFFF7B3FC27E0FB1D1B7800
:4023C0001800FFF789FCFB1D1B781800FFF784FCFB1D1B781800FFF75DFCFB1D1B781800FFF758FCFB1D1B781800FFF775FCFB1D1B781800FFF770FCFFF792FC06E0FA231C
:402400009B00180000F050FF00E0C046BD4602B080BDC04680B584B000AF02003960FB1D1A700023FB6011E0012000F01DF8031E15D03A68FB68D3181A78FB1D1B7811009E
:402440001800FFF77DFCFB680133FB603B68180001F066FA0200FB689A42E5D800E0C046BD4604B080BDC04680B582B000AF0200FB1D1A70064B1B78DBB2FA1D12789A4251
:4024800001D1012300E000231800BD4602B080BD6C01002090B583B000AF00F0C7FFFC1C0120FFF7C9FA0300237001F0FDF903000721180001F090F90B0001337B6009E080
:4024C00001F0F2F903000721180001F085F90B0001337B60FB1C1A787B689A42F0D07B68DBB21800FFF7BEFB044B01221A7000F02FFAC046BD4603B090BDC0466C01002024
:4025000090B583B000AF00F091FFFC1C0120FFF793FA0300237001F0C7F903000721180001F05AF90B0001337B6009E001F0BCF903000721180001F04FF90B0001337B602B
:40254000FB1C1A787B689A42F0D07B68DBB21800FFF788FB044B02221A7000F06DFAC046BD4603B090BDC0466C01002080B500AF044B03221A7000F0EBFE00F0D3FAC046C4
:40258000BD4680BD6C01002090B585B000AFFC1D0120FFF751FA03002370BC1D0220FFF74BFA0300237001F07FF903000721180001F012F90B000133FB6001F075F90300A4
:4025C0000721180001F008F90B000133BB6009E001F06AF903000721180001F0FDF80B000133FB60FB1D1A78FB689A42F0D009E001F05AF903000721180001F0EDF80B0055
:402600000133BB60BB1D1A78BB689A42F0D0FB68DBB219000120FFF79BF9BB68DBB219000220FFF795F90320FFF7C4FA0320FFF721FA00F0CDFF00F059FFC046BD4605B032
:4026400090BDC04680B500AF0C4B180000F082FA0B4B180000F094F90A4B180000F004FA094B180000F056FF002001F061F90300180001F0EBF8C046BD4680BD6D2500001F
:4026800095240000012500008925000080B582B000AF786039603A687B680021180001F0CDF8C046BD4602B080BDC04680B586B000AF7860396000233B6100237B612FE03C
:4026C0007B699B007A68D3181B68BB600F23FB18BA681A70BB68FF229343BB6018E03B695B003A68D3181B781A00BB68D31819003B695B003A68D3185B780B703B690133C0
:402700003B610F23FB181A780F23FB18013A1A700F23FB181B78002BE1D17B6901337B617B69092BCCD9C046BD4606B080BDC04680B500AFC046BD4680BDC04680B500AFA0
:4027400001F050F803001B680C2B00D1FEE7FEE780B584B000AF78600F4B1A687B68D3181A000E4BD31A802B09DC0B4B1B68FB60094B1A687B68D218074B1A6007E001F0C3
:4027800031F803000C221A6001235B42FB60FB681800BD4604B080BDD40000209001002080B586B000AF224B7B61224B3B61204B7B6135E03B691B68FB603B695B68BB6049
:4027C0003B699B683B6000237B600CE0FB681A68BB681A60BB680433BB60FB680433FB607B6804337B607A683B689A42EED13B69DB683B6000237B6008E0BB6800221A6085
:40280000BB680433BB607B6804337B607A683B689A42F2D13B6910333B617B69013B7B617B69002BC6D100F0E3FFFEF783FDFEE7010000005441000080B582B000AF0023EA
:402840007B600FE07B68032B04D8144B7A689200D35800E0124B134A796889008B507B6801337B607B682F2BECD9FEF755FC0E4B00221A600D4B1B68002B02D10B4B002244
:402880001A608023DB058022D205126801210A431A60C046BD4602B080BDC046801000003D27000000000020C8000020C000002080B584B000AF0200FB1D1A700F4B1B68CC
:4028C000DAB20F23FB1840218A431A70FB1D1B789B01DBB240221340D9B20F23FB180F22BA1812780A431A70044B0F22BA1812781A60C046BD4604B080BDC04600010440F7
:4029000080B584B000AF0200FB1D1A700F4B1B68DAB20F23FB1840218A431A70FB1D1B789B01DBB240221340D9B20F23FB180F22BA1812780A431A70044B0F22BA181278DC
:402940001A60C046BD4604B080BDC0460000044080B582B000AF094B1B68DAB2FB1D10210A401A70054BFA1D12781A60FB1D1B781B09DBB21800BD4602B080BD10030440DB
:4029800080B582B000AF786000F04CF87B68180000F00AF8032000F015F800F039F8C046BD4602B080BDC04680B582B000AF7860034B7A68DA64C046BD4602B080BDC0466F
:4029C0000000002090B585B000AF0200FB1D1A701E23FB600B23FC1800F010FE030023700A4B0A4A126892009108FA1D1078FA68904002000A431A600B23FB181B781800A4
:402A000000F000FEC046BD4605B090BD00E400E080B500AF024B08221A60C046BD4680BD00E100E080B500AF024B08221A60C046BD4680BD80E100E080B582B000AF094B37
:402A40001B68DAB2FB1D04210A401A70054BFA1D12781A60FB1D1B789B08DBB21800BD4602B080BD1001044080B582B000AF786000F04EF87B68180000F00AF8032000F06D
:402A800015F800F03BF8C046BD4602B080BDC04680B582B000AF7860034B7A685A64C046BD4602B080BDC0460000002090B585B000AF0200FB1D1A700E23FB600B23FC1853
:402AC00000F09CFD030023700A4B0A4A12680A491140FA1D1078FA68904002000A431A600B23FB181B78180000F08CFDC046BD4605B090BD00E400E0FF3FFFFF80B500AF02
:402B0000024B02221A60C046BD4680BD00E100E080B500AF024B02221A60C046BD4680BD80E100E080B582B000AF094B1B68DAB2FB1D7F218A431A70054BFA1D12781A605A
:402B4000FB1D1B78DB09DBB21800BD4602B080BD1000044080B582B000AF786000F04EF87B68180000F00AF8032000F015F800F03BF8C046BD4602B080BDC04680B582B022
:402B800000AF7860034B7A681A64C046BD4602B080BDC0460000002090B585B000AF0200FB1D1A700623FB600B23FC1800F026FD030023700B4B0B4A1268C0218A431100A2
:402BC000FA1D1078FA68904002000A431A600B23FB181B78180000F015FDC046BD4605B090BDC04600E400E080B500AF024B01221A60C046BD4680BD00E100E080B500AFBF
:402C0000024B01221A60C046BD4680BD80E100E080B584B000AF0200FB1D1A700D4B1B68DAB20F23FB187F210A401A70FB1D1B78DB01D9B20F23FB180F22BA1812780A4316
:402C40001A70044B0F22BA1812781A60C046BD4604B080BD0002044080B584B000AF0200FB1D1A700F4B1B68DAB20F23FB1804218A431A70FB1D1B789B00DBB20422134002
:402C8000D9B20F23FB180F22BA1812780A431A70044B0F22BA1812781A60C046BD4604B080BDC0460000044080B500AF064B1B78002B04D100F00AF8034B01221A7000F0A1
:402CC00047F8C046BD4680BD6D01002090B583B000AF1D4B1B78DAB2FB1D3F218A431A70194AFB1D1B7809210B43DBB21370174A164B1B78DBB201210B43DBB213703C20F0
:402D000000F046F83C2000F063F81E2000F070F8002000F07DF8BC1D00F070FC030023700A4A0A4B1B78DBB210210B43DBB21370BB1D1B78180000F065FC00F039F8C04685
:402D4000BD4603B090BDC04672000F4092000F4080B500AF0549054B1B78DBB2802252421343DBB20B70C046BD4680BD72000F4080B500AF054A054B1B78DBB27F210B40DD
:402D8000DBB21370C046BD4680BDC04672000F4080B582B000AF0200FB1D1A70034AFB1D1B781370C046BD4602B080BD02000F4080B500AF01E000F045F800F039F8030062
:402DC0001A0010231340F6D1C046BD4680BDC04680B582B000AF0200FB1D1A70034AFB1D1B781370C046BD4602B080BD42000F4080B582B000AF0200FB1D1A70034AFB1D43
:402E00001B781370C046BD4602B080BD22000F4080B582B000AF0200FB1D1A70034AFB1D1B781370C046BD4602B080BD82000F4080B500AF024B1B78DBB21800BD4680BD6C
:402E400062000F4080B500AF024B1B78DBB21800BD4680BD52000F4080B500AF064B1B78002B04D100F00AF8034B01221A7000F047F8C046BD4680BD6E01002090B583B026
:402E800000AF1D4B1B78DAB2FB1D3F218A431A70194AFB1D1B7809210B43DBB21370174A164B1B78DBB201210B43DBB213703C2000F046F83C2000F063F81E2000F070F84E
:402EC000002000F07DF8BC1D00F098FB030023700A4A0A4B1B78DBB210210B43DBB21370BB1D1B78180000F08DFB00F039F8C046BD4603B090BDC04673000F4093000F4034
:402F000080B500AF0549054B1B78DBB2802252421343DBB20B70C046BD4680BD73000F4080B500AF054A054B1B78DBB27F210B40DBB21370C046BD4680BDC04673000F40A7
:402F400080B582B000AF0200FB1D1A70034AFB1D1B781370C046BD4602B080BD03000F4080B500AF01E000F045F800F039F803001A0010231340F6D1C046BD4680BDC04609
:402F800080B582B000AF0200FB1D1A70034AFB1D1B781370C046BD4602B080BD43000F4080B582B000AF0200FB1D1A70034AFB1D1B781370C046BD4602B080BD23000F40B3
:402FC00080B582B000AF0200FB1D1A70034AFB1D1B781370C046BD4602B080BD83000F4080B500AF024B1B78DBB21800BD4680BD63000F4080B500AF024B1B78DBB218000E
:40300000BD4680BD53000F4080B584B000AF0200FB1D1A700F4B1B68DAB20F23FB1820218A431A70FB1D1B785B01DBB220221340D9B20F23FB180F22BA1812780A431A704F
:40304000044B0F22BA1812781A60C046BD4604B080BDC0460002044080B584B000AF0200FB1D1A700E4B1B68DAB20F23FB1801218A431A70FB1D1B7801221340D9B20F23F4
:40308000FB180F22BA1812780A431A70044B0F22BA1812781A60C046BD4604B080BDC0460000044090B585B000AF78600C23FC1800F0A4FA030023707B68022B00D8B3E01C
:4030C0007B68302B00D9AFE05E4B1B78DBB21A007B689A420AD35C4A0F23FB1812781A705A4A0E23FB1812781A703FE0584B1B78DBB21A007B689A420AD3564A0F23FB1833
:4031000012781A70544A0E23FB1812781A702DE0524B1B78DBB21A007B689A420AD3504A0F23FB1812781A704E4A0E23FB1812781A701BE04C4B1B78DBB21A007B689A4297
:403140000AD34A4A0F23FB1812781A70484A0E23FB1812781A7009E0464A0F23FB1812781A70454A0E23FB1812781A707B68DA1E0B23FB1841498A5C1A700B23FB181B78F8
:403180002F2B0DD97B682A2B0AD93D4B19221A60052000F029FA0D23FB1819221A7007E0374B1B68DAB20D23FB183F210A401A700B23FA180D23FB1812781B789A4208D2F2
:4031C0002F4B7A68033A2D498A5C1A60052000F00BFA7B68284A9A180A23FB1812781A70284B0A22BA1812781A60274B0F22BA1812781A60254B0E22BA1812781A60052062
:4032000000F078F80B23FA180D23FB1812781B789A420CD91A4B7A68033A18498A5C1A60052000F0E1F902E0002000F031F80C23FB181B78180000F0E5F9C046BD4605B005
:4032400090BDC046C0F1FF0FC1F1FF0FC2F1FF0FC3F1FF0FC4F1FF0FC5F1FF0FC6F1FF0FC7F1FF0FC8F1FF0FC9F1FF0FCAF1FF0FCBF1FF0FCCF1FF0FCDF1FF0F00410000ED
:403280002CFF0B4028FF0B401CFF0B4020FF0B4080B582B000AF0200FB1D1A7001BEC046BD4602B080BDC04680B582B000AF786009E00D4B1B68180000F096F97B680B4A5E
:4032C000944663447B607A6880231B029A42F0D8074B1B687A685343180000F085F9C046BD4602B080BDC046E40000200080FFFFDC00002080B582B000AF0200BB1D1A8053
:40330000BB1D1B88044A12785343180000F06CF9C046BD4602B080BDE000002090B583B000AFFC1D00F06AF903002370074B074A126804218A431A6030BFFB1D1B781800DB
:4033400000F060F9C046BD4603B090BD10ED00E080B500AF064B1B78002B04D100F00AF8034B01221A7000F051F8C046BD4680BD6F01002090B583B000AF214B1B78DAB2A8
:40338000FB1D3F218A431A701D4AFB1D1B7809210B43DBB213701B4A1A4B1B78DBB201210B43DBB21370184A174B1B78DBB201210B43DBB21370C82000F048F8C82000F0E6
:4033C00065F8C82000F072F8042000F07FF8BC1D00F014F9030023700B4A0B4B1B78DBB210210B43DBB21370BB1D1B78180000F009F900F03BF8C046BD4603B090BDC04636
:4034000071000F4090000F4091000F4080B500AF0549054B1B78DBB2802252421343DBB20B70C046BD4680BD71000F4080B500AF054A054B1B78DBB27F210B40DBB2137033
:40344000C046BD4680BDC04671000F4080B582B000AF0200BB1D1A80034ABB1D1B881380C046BD4602B080BD00100F4080B500AF01E000F045F800F039F803001A001023A1
:403480001340F6D1C046BD4680BDC04680B582B000AF0200BB1D1A80034ABB1D1B881380C046BD4602B080BD80100F4080B582B000AF0200BB1D1A80034ABB1D1B88138005
:4034C000C046BD4602B080BD40100F4080B582B000AF0200FB1D1A70034AFB1D1B781370C046BD4602B080BD81000F4080B500AF024B1B78DBB21800BD4680BD61000F40DF
:4035000080B500AF024B1B889BB21800BD4680BDA0100F4080B582B000AF786000F04EF87B68180000F00AF8032000F015F800F03BF8C046BD4602B080BDC04680B582B05A
:4035400000AF7860034B7A689A64C046BD4602B080BDC0460000002090B585B000AF0200FB1D1A701623FB600B23FC1800F046F8030023700A4B0A4A12680A491140FA1D33
:403580001078FA68904002000A431A600B23FB181B78180000F036F8C046BD4605B090BD00E400E0FFFF3FFF80B500AF024B04221A60C046BD4680BD00E100E080B500AFB7
:4035C000024B04221A60C046BD4680BD80E100E080B500AF024B04221A60C046BD4680BD80E200E0000000000230800804D0C0460138FDD1C046C046C0467047EFF3108028
:4036000072B6704780F310887047C04603460B437FD4002243088B4274D303098B425FD3030A8B4244D3030B8B4228D3030C8B420DD3FF22090212BA030C8B4202D312121D
:40364000090265D0030B8B4219D300E0090AC30B8B4201D3CB03C01A5241830B8B4201D38B03C01A5241430B8B4201D34B03C01A5241030B8B4201D30B03C01A5241C30ADB
:403680008B4201D3CB02C01A5241830A8B4201D38B02C01A5241430A8B4201D34B02C01A5241030A8B4201D30B02C01A5241CDD2C3098B4201D3CB01C01A524183098B4299
:4036C00001D38B01C01A524143098B4201D34B01C01A524103098B4201D30B01C01A5241C3088B4201D3CB00C01A524183088B4201D38B00C01A524143088B4201D34B0032
:40370000C01A5241411A00D201465241104670475DE0CA0F00D04942031000D34042534000229C4603098B422DD3030A8B4212D3FC22890112BA030A8B420CD389019211A6
:403740008B4208D3890192118B4204D389013AD0921100E08909C3098B4201D3CB01C01A524183098B4201D38B01C01A524143098B4201D34B01C01A524103098B4201D308
:403780000B01C01A5241C3088B4201D3CB00C01A524183088B4201D38B00C01A5241D9D243088B4201D34B00C01A5241411A00D20146634652415B10104601D34042002B87
:4037C00000D54942704763465B1000D3404201B5002000F005F802BD0029F8D016E770477047C046014B18687047C0464C0100200E4B70B500251E000D4CE41AA410A542BC
:4038000004D0AB00F35898470135F8E700F090FC084B00251E00084CE41AA410A54204D0AB00F35898470135F8E770BD3C4100003C4100003C410000444100000300821847
:40384000934202D019700133FAE77047104B70B51C680500A36B002B15D1182000F08EF80C4BA06303800C4B012243800B4B83800B4BC3800B4B0381052343810633838167
:403880000023026143610022A36B1D615A6170BD4C0100200E330000CDABFFFF341200006DE6FFFFECDEFFFF154B10B51C68A36B002B15D1182000F061F8124BA063038099
:4038C000114B01224380114B8380114BC380114B03810523438106338381002302614361A46B0D4A206961690C4B00F0C5F80122002380185941206161614800400810BD80
:403900004C0100200E330000CDABFFFF341200006DE6FFFFECDEFFFF2D7F954C2DF451580023C25C0133002AFBD1581E7047000013B5084B040000226946186800F00CF8B1
:40394000002802DA01235B4200930098002C00D0206016BD4C010020002370B5064C050008001100236000F0B3F8431C03D12368002B00D02B6070BD8801002010B5034B98
:403980000100186800F004F810BDC0464C010020032370B5CD1C9D43083506000C2D01D20C2501E0002D01DBA94202D90C23336048E0300000F05EF8234B1C681A00210089
:4039C000002913D00B685B1B0DD40B2B02D90B60CC181EE08C4202D1636813601AE04B6863600C0016E00C004968E9E7174C2368002B03D1300000F02BF8206029003000AC
:403A000000F026F8431C18D00323C41C9C43A0420DD12560300000F02EF8200007220B30231D9043C31A0ED05A42E2500BE0211A300000F00DF8431CEBD10C233000336049
:403A400000F019F8002070BD7401002070010020002370B5064C050008002360FEF778FE431C03D12368002B00D02B6070BDC0468801002070477047F0B54F464646C0B475
:403A80001604360C9946330005042C0C070C150C63437E436F4365431C0CAD1964199C46A64203D980235B02984647446346250CEF191D044B464A4343432D0C2404641963
:403AC0009918C91920000CBC90469946F0BDC04658220120014B40421A6070478801002000000000444546434F4E323500000000021900000219000002190000021900001E
:403B000002190000021900000219000002190000021900000219000002190000021900000219000002190000021900000219000002190000021900000219000002190000D5
:403B40000219000002190000021900000219000002190000021900000219000002190000021900000219000002190000021900000219000002190000021900000219000095
:403B80000219000002190000A6170000C8170000F0170000121800003418000056180000781800009A180000BC180000DE18000002190000021900000219000002190000D0
:403BC00002190000021900000219000032140000541400007614000098140000BA140000DC140000FE14000020150000421500006415000086150000A8150000CA15000084
:403C0000EC1500000E16000030160000521600007416000096160000B8160000DA160000FC1600001E170000401700006217000084170000021900000219000002190000BA
:403C400002190000021900000219000032140000541400007614000098140000BA140000DC140000FE14000020150000421500006415000086150000A8150000CA15000003
:403C8000EC1500000E16000030160000521600007416000096160000B8160000DA160000FC1600001E1700004017000062170000841700001A1A0000D8190000E21900006B
:403CC000EC190000061A0000101A00009E1B0000941A0000021B0000701B00007E1B00008E1B0000F81A0000AA1A0000B01A0000B81A0000C41A0000CC1A0000D81A0000FC
:403D0000E61A0000661B0000181B00001E1B0000261B0000321B00003A1B0000461B0000541B0000341C0000D21B0000EC1B0000061C0000141C0000241C00000C240000DD
:403D40000C2400000C2400000C2400000C2400000C2400000C2400000C2400000C2400000C2400000C2400000C2400000C2400000C2400000C2400000C2400000C24000043
:403D80000C2400000C2400000C2400000C2400000C240000FE2300000C2400000C2400000C2400000C2400000C2400000C2400000C2400000C2400000C2400000C24000012
:403DC0000C240000BC2300000C2400007A2300000C2400004A21000082210000BA210000F22100002A220000622200009A220000D22200000A230000422300000C24000079
:403E00000C2400000C2400000C2400000C2400000C2400000C240000741D00008E1D0000BC1D0000EA1D00000E1E00001E1E00004C1E0000701E00009E1E0000B81E000054
:403E4000E61E00000A1F0000381F0000521F00006C1F0000901F0000BE1F0000EC1F00001020000034200000442000006820000096200000BA200000E82000001C210000E6
:403E80000C2400000C2400000C2400000C2400000C2400000C240000741D00008E1D0000BC1D0000EA1D00000E1E00001E1E00004C1E0000701E00009E1E0000B81E0000D4
:403EC000E61E00000A1F0000381F0000521F00006C1F0000901F0000BE1F0000EC1F00001020000034200000442000006820000096200000BA200000E82000001C21000066
:403F000000300F40000400400F40000403000F403A300F401D310F404F320F402E330F4006400F4002410F4002420F4002430F4002600F40810D820D830D4030410449FF9A
:403F40004AFF4BFF4DA04F0450185A045F01604062C06440654066C068C06AC06CC06EC08202870396029902AE01B201B301B402B702BE10C030C104C5D1C602C807C9FF2D
:403F8000CAFFCBFFCDAFCE0FCF04D018D280D405D604D804D904DA04DB04DF01E040E2C0E440E540E6C0E8C0EAC0ECC0EEC006800D0817401C101D081E0826402720372035
:403FC0003F0840104280450846804F0956805E885F01674077408740C010C220C480CC20CE40D0C3D6D0D8800301060116051E0C2D012E02300832023401360437013E102C
:404000004030410645D046204710482A49FF4AFF4BFF4DA04F04501852805405580459045A045B045F01604062C06440654066C068C06AC06CC06EC08A0592029B01A101C3
:40404000A60CAA01B008B202B401B604B701BE10C030C106C5D1C702C813C9FFCAFFCBFFCDA0CF04D018D280D405D804D904DA04DB04DF01E040E2C0E440E540E6C0E8C034
:40408000EAC0ECC0EEC00010062009020D080F0210281740181219021A041D081E081F422240264029022F0230203F0240104508482849014F2150085620571159015A840D
:4040C0005E885F017102774080019780AF40C022C2A8C486CA11CC04CE80D042D224D6DBE404520873028702D420DC20E640AE08EA106702D601830197020101100100000B
:40410000030405060708090A0B0C0E0F101112131415161718191B1C1D1E1F2021222325262728292A2B2E2F3031323334354300F8B5C046F8BC08BC9E467047FD12000077
:4041400039280000F8B5C046F8BC08BC9E467047D512000068410000D0000020800000004000000000000000000000009001002000366E01C05D0000180000000000E02E3F
:404180000100000000000000000000000000000000000000000000000000000000000000000000002E4100000000000000000000000000000000000000000000000000008F
:4041C000000000000000000000000000000000000000000000000000000000000000000000000000EC000020000000000000000000000000000000000000000000000000B3
:40420000000000000000000000000000000000000000000000000000000000000000000000000000000000000000000000000000000000000000000000000000000000007E
:40424000000000000000000000000000000000000000000000000000000000000000000000000000000000000000000000000000000000000000000000000000000000003E
:4042800000000000000000000000000000000000000000000000000000000000000000000000000000000000000000000000000000000000000000000000000000000000FE
:4042C00000000000000000000000000000000000000000000000000000000000000000000000000000000000000000000000000000000000000000000000000000000000BE
:407FC0006A911000002000000080310000000000000001000000010000000000000000000000000000000000000000000000000000000000000000000000000000000000A3
:0200000490303A
:02000000AFD07F
:0200000490402A
:20000000FFFFFFFF00000000000000000000000000000000000000000000000000000000E4
:0200000490501A
:0C000000000204C81193110004E1C16368
:0200000490600A
:0100000001FE
:00000001FF